8=FIX.4.4|9=87|35=A|34=1|49=ORDER_EXECUTION|52=20260118-00:32:14.918|56=FIX_GATEWAY|98=0|108=30|141=Y|10=025|8=FIX.4.4|9=69|35=0|34=2|49=ORDER_EXECUTION|52=20260118-00:32:45.227|56=FIX_GATEWAY|10=192|8=FIX.4.4|9=69|35=0|34=3|49=ORDER_EXECUTION|52=20260118-00:33:15.557|56=FIX_GATEWAY|10=197|8=FIX.4.4|9=144|35=D|34=4|49=ORDER_EXECUTION|52=20260118-00:33:17.976|56=FIX_GATEWAY|1=ACC1|11=ORD-1|38=10|40=2|44=32500|54=1|55=PETR4|60=20260118-00:33:17.962|10=152|8=FIX.4.4|9=144|35=D|34=5|49=ORDER_EXECUTION|52=20260118-00:33:30.973|56=FIX_GATEWAY|1=ACC1|11=ORD-1|38=10|40=2|44=32500|54=1|55=PETR4|60=20260118-00:33:30.973|10=142|8=FIX.4.4|9=144|35=D|34=6|49=ORDER_EXECUTION|52=20260118-00:33:34.584|56=FIX_GATEWAY|1=ACC1|11=ORD-1|38=10|40=2|44=32500|54=1|55=PETR4|60=20260118-00:33:34.584|10=147|