8=FIX.4.4|9=81|35=A|34=1|49=FIX_GATEWAY|52=20260118-00:32:14.965|56=ORDER_EXECUTION|98=0|108=30|10=232|8=FIX.4.4|9=69|35=0|34=2|49=FIX_GATEWAY|52=20260118-00:32:45.227|56=ORDER_EXECUTION|10=192|8=FIX.4.4|9=69|35=0|34=3|49=FIX_GATEWAY|52=20260118-00:33:15.558|56=ORDER_EXECUTION|10=198|